:020000040800F2
:1000000000500020517200084D7200084D72000827
:100010004D7200084D7200084D720008000000008B
:100020000000000000000000000000004D72000809
:100030004D720008000000004D7200084D7200086B
:100040004D7200084D7200084D7200084D72000894
:100050004D7200084D7200084D7200084D72000884
:100060004D720008553D00084D7200084D720008A1
:100070004D7200084D7200084D7200084D72000864
:100080004D7200084D7200084D7200084D72000854
:100090004D7200084D7200084D7200084D72000844
:1000A0004D7200084D7200084D7200084D72000834
:1000B0004D7200084D7200084D7200084D72000824
:1000C0004D7200084D7200084D7200084D72000814
:1000D0004D720008B15E00084D7200084D720008B4
:1000E0004D7200084D7200084D72000800000000BB
:1000F0000000000000000000000000000000000000
:1001000000000000000000005FF808F10348044B05
:10011000834202D0034B03B118477047B000002060
:10012000B00000200000000005480649091A8910A7
:1001300001EBD171491002D0034B03B1184770474E
:10014000B0000020B00000200000000010B5064CF8
:10015000237843B9FFF7DAFF044B13B10448AFF338
:1001600000800123237010BDB000002000000000BB
:1001700090C6000808B5044B1BB104490448AFF30E
:100180000080BDE80840CFE700000000B400002078
:1001900090C60008134B002B08BF114B9D46A3F5DA
:1001A000803A00218B460F461148124A121A08F075
:1001B000A1F90D4B002B00D098470C4B002B00D021
:1001C00098470020002104000D000B4808F02AF990
:1001D00008F05CF92000290000F07AFA08F028F90C
:1001E0000000080000000000000000000000000007
:1001F000B0000020A81500205984000810B540F276
:100200006B31044603F0C2F9002304F1100204F13B
:10021000600102F8013B8A42FBD1F0222366A4F878
:10022000642084F8663084F86730204610BD222AA6
:1002300070B506460C460ED103F0BBF920280CD948
:1002400004F1210514F8011F304603F0EBF9AC422C
:10025000F8D1002070BD0420FCE70520FAE700007B
:100260002DE9F3410D46082400274FF001080D4EFB
:100270002B064FF001024FF000030DF1070130464D
:1002800004F1FF344CBF8DF807808DF807706D00C6
:1002900002F006FA14F0FF04EDB2E9D102B0BDE8B5
:1002A000F08100BF8C07002080F8671070470000C5
:1002B000094B1B78622B0BD15F2100F1100300F179
:1002C000310203F8011B9342FBD12123A0F86030D7
:1002D0000023A0F862307047EC0C002070B590F855
:1002E00067300446B0F8605043B335B980F86650C3
:1002F000FFF7DEFFB4F86030FBB1274802F0F4F9F5
:100300000546082D19D9B4F8623094F866105A1CC5
:1003100092B2A4F8622000293BD05F212046FFF76B
:100320009FFFB4F86220B4F86030083D9A42ADB245
:10033000E7D30023236684F8663070BD002DDCD13E
:1003400003F054F90028D5D0144B1B7853B901237E
:1003500084F86630B4F86430A4F860300023A4F860
:100360006230C7E784F8665004F1100604F13105E5
:10037000204603F07AF906F8010BB542F8D10023C4
:1003800007495A5C0133272B05F8012BF9D1482383
:10039000E2E72344197CC1E78C070020FB0C002016
:1003A0002C8B000808B503F004F92323B0FBF3F00D
:1003B00080B208BD01EB4101890001F51671A0F87A
:1003C0006410704710B54FF47A71044603F0DEF8FC
:1003D000002304F1100204F1D80102F8013B8A4223
:1003E000FBD14822C4F8D830A4F8DC2084F8DE30F1
:1003F00084F8DF30204610BD08B5B0F8D8302BB9EE
:1004000003F0F4F8003018BF012008BD0120FCE71C
:10041000442A70B506460C460ED103F0CAF84328AC
:100420000CD9651E433415F8011F304603F0FAF865
:10043000A542F8D1002070BD0420FCE70520FAE7B2
:100440002DE9F3410D46082400274FF001080D4E19
:100450002B064FF001024FF000030DF1070130466B
:1004600004F1FF344CBF8DF807808DF807706D00E4
:1004700002F016F914F0FF04EDB2E9D102B0BDE8C4
:10048000F08100BF8C07002001EB41014908483191
:1004900096298ABF9623A0F8DC10A0F8DC307047BC
:1004A00008B503F086F84423B0FBF3F0C0B208BDF2
:1004B000012A08B50DD10B78012B0CBF01230023B5
:1004C00080F8DF3003D10621034804F0B9FD002095
:1004D00000E0042008BD00BF8C070020AA2100F125
:1004E000100300F1540203F8011B9342FBD1442393
:1004F000C0F8D8307047000070B590F8DF3004467F
:1005000023B1002380F8DE30FFF7E8FFB4F8D850BD
:100510009DB9204603F06AF860B1214B1B786BBB94
:10052000012384F8DE30B4F8DC30A4F8D83000239E
:10053000A4F8DA30B4F8D830FBB11A4802F0D4F895
:100540000546082D19D9B4F8DA3094F8DE105A1C93
:1005500092B2A4F8DA2001B3AA212046FFF770FF77
:10056000B4F8DA20B4F8D830083D9A42ADB2E8D3F6
:100570000023C4F8D83084F8DE3070BD84F8DE5033
:1005800004F1540604F11005204603F06EF805F856
:10059000010BB542F8D14423C7E72344197CDCE7BB
:1005A000FB0C00208C070020014800F057BA00BF68
:1005B0009410002038B5324802F056F9314801F065
:1005C00047F8314B314C1B782BB12378012B02D1EA
:1005D0002F4802F049FE2F4B2F4D1B783BB123785B
:1005E000022B04D12B7813B92C48FFF777FE2C4B44
:1005F0001B782BB12378032B02D12A4802F03EFC52
:10060000294B1B782BB12378042B02D1274802F009
:1006100055FF274B1B782BB12378052B02D125489A
:1006200005F058FB244B1B782BB12378072B02D104
:10063000224804F0F5F9224B1B782BB12378062BC6
:1006400017D12048FFF758FF2B785C3BDBB2082B13
:1006500008D840F2411222FA03F3DB0702D51A4808
:1006600004F0D6FA237853B9BDE83840174805F0AE
:1006700037BD1448FFF7C0FE0028E2D1E4E738BDDB
:100680008C0700209410002006000020F80C0020A9
:100690001807002005000020EC0C0020500300206B
:1006A0000B000020B812002009000020A00E00203E
:1006B00008000020500D0020070000202408002022
:1006C0000A000020B40F00206801002094010020DF
:1006D00008B5FFF769FFFFF76DFFFCE708B51A489B
:1006E00001F0F2FA194802F02FFC194803F03AFE23
:1006F0001848FFF783FD184803F027FD174802F05C
:1007000067FB174803F036F9164802F078FE1648E2
:1007100002F03AFA154804F02FF9154802F0B8FF34
:10072000144805F082FA1448FFF74CFE134804F011
:10073000EDF9134805F0C5FC124800F027F8BDE8B4
:100740000840114801F044BFB803002018070020FA
:10075000C80200205003002020120020B812002000
:10076000A80D0020A00E0020E4070020240800208F
:10077000000D0020500D0020B40F00206801002063
:1007800094010020941000208C07002002460023D2
:1007900000F5807102F8013B9142FBD180F80031F5
:1007A00080F80131002300F5817200F5C17102F873
:1007B000013B9142FBD180F8823180F8833180F88F
:1007C000843170471FB54FF49C63ADF80C30702333
:1007D0008DF80E30837803AA8DF80F3000230121A5
:1007E0000093042305F05EFC05B05DF804FB1FB523
:1007F0004FF4BC63ADF808307F238DF80A3083785E
:100800008DF80C108DF80B30002302AA0093012103
:10081000052305F047FC05B05DF804FB2DE9F04F1A
:10082000834687B05D4802F09EF95D4B02935D4BB5
:100830001A789A4612B101238DF80B305A4B1A7868
:1008400099462AB19DF80B3043F002038DF80B3026
:10085000564B1A7898462AB19DF80B3043F00403A2
:100860008DF80B30524F3B782BB19DF80B3043F095
:1008700008038DF80B304F4E33782BB19DF80B30B9
:1008800043F010038DF80B304B4D2B782BB19DF8B6
:100890000B3043F020038DF80B30484C23782BB1FC
:1008A0009DF80B3063F07F038DF80B30444B3B48D1
:1008B0001B788DF80C30434B1B788DF80D3001F010
:1008C00019FF28B19DF80D3043F004038DF80D3069
:1008D000324801F00CFF28B19DF80D3043F00803B9
:1008E0008DF80D309AF80030002B3FD0364802F0DA
:1008F0007EFD8DF80E0099F80030002B39D00A23C8
:1009000032488DF80F30FFF74DFD8DF8100098F844
:1009100000309BB32E4802F00FFB8DF811003B789E
:100920007BB32C4802F02AFE8DF8120033785BB3BB
:10093000294805F04DFA8DF813002B783BB3274872
:10094000FFF7AEFD8DF8140023781BB3244804F0A4
:10095000D5F88DF81500002302AA009301210E237B
:10096000584605F09FFB07B0BDE8F08F8DF80E30BC
:10097000C1E78DF80F308DF81030C8E78DF81130D1
:10098000CDE78DF81230D1E78DF81330D5E78DF82B
:100990001430D9E78DF81530DDE700BF8C07002053
:1009A000E00E010006000020050000200B000020E2
:1009B00009000020080000200A0000200700002095
:1009C000F80C0020FB0C002018070020500300202A
:1009D000B8120020A00E0020500D0020B40F0020FF
:1009E00024080020002210B50C4BA4B00C4C03933B
:1009F000D1B2615C131DDBB2013229B10DF1900C53
:100A0000634403F8841CF3E7009103AA01218DF8E5
:100A10000D3005F047FB24B010BD00BFE000000121
:100A2000538B0008082A13B514D9092AD1F80500F8
:100A300014BF4B7AFF230D2A94BF0246D1F80A2037
:100A4000D1F80140009221460246034801F056FECB
:100A500002B010BD0420FBE78C0700204FF4E13208
:100A6000012105F00BBB0000F0B5154B91B01B78D0
:100A7000012B23D8134B1B7803B3E023ADF80C30C4
:100A80001023CDB28DF80E30C5F10307CBB2DC19BF
:100A90005B1BDBB29A42E4B206D911F8016B10ABD2
:100AA000234403F8346CF1E7D31C0022DBB200923C
:100AB000012103AA8DF80D3005F0F4FA11B0F0BD54
:100AC000F80C002006000020F0B5154B89B01B780B
:100AD000012B23D8134B1B7803B3E023ADF80C3064
:100AE0001123CDB28DF80E30C5F10307CBB2DC195E
:100AF0005B1BDBB29A42E4B206D911F8016B08AB7A
:100B0000234403F8146CF1E7D31C0022DBB20092FB
:100B1000012103AA8DF80D3005F0C4FA09B0F0BD2B
:100B2000F80C0020060000201FB50C4B1B78012B91
:100B300010D80B4B1B786BB14FF47873ADF80C30B9
:100B400012238DF80E30002303AA00930121032302
:100B500005F0A8FA05B05DF804FB00BFF80C002012
:100B6000060000201FB50C4B1B78012B10D80B4B37
:100B70001B786BB14FF47873ADF80C3013238DF8FC
:100B80000E30002303AA00930121032305F08AFA03
:100B900005B05DF804FB00BFF80C00200600002043
:100BA000F0B5184C8DB0247814F0FD0F27D1164CF9
:100BB000247824B300294FF0E00414BF1A2118212F
:100BC000D5B2ADF808408DF80A10C5F10307D1B2CF
:100BD000CC19491BC9B28B42E4B206D912F8016B99
:100BE0000CA9214401F8286CF1E700220333DBB2A1
:100BF0000092012102AA8DF8093005F053FA0DB0D8
:100C0000F0BD00BFF80C0020050000201FB50D4B03
:100C10001B7813F0FD0312D10B4A12787AB14FF40E
:100C200078720029ADF80C2014BF1B221922009302
:100C30008DF80E20032303AA012105F033FA05B035
:100C40005DF804FBF80C002005000020F0B5164B01
:100C5000A5B01B78032B00D01BBB144B1B7803B330
:100C6000E023ADF80C302023CDB28DF80E30C5F165
:100C70000307CBB2DC195B1BDBB29A42E4B206D9A4
:100C800011F8016B24AB234403F8846CF1E7D31C07
:100C90000022DBB20092012103AA8DF80D3005F08D
:100CA00001FA25B0F0BD00BFF80C00200B000020B9
:100CB0001FB50C4B1B78032B00D083B90A4B1B7854
:100CC0006BB14FF47873ADF80C3021238DF80E30F2
:100CD000002303AA00930121032305F0E3F905B0E3
:100CE0005DF804FBF80C00200B000020F0B5164B5B
:100CF000A1B01B7813F0FB0F23D1144B1B7803B367
:100D0000E023ADF808303023CDB28DF80A30C5F1BC
:100D10000307CBB2DC195B1BDBB29A42E4B206D903
:100D200011F8016B20AB234403F8786CF1E7D31C76
:100D30000022DBB20092012102AA8DF8093005F0F1
:100D4000B1F921B0F0BD00BFF80C0020090000206F
:100D5000F0B5164BC3B01B7813F0FB0F23D1144B27
:100D60001B7803B3E023ADF80C303123CDB28DF8FE
:100D70000E30C5F10307CBB2DC195B1BDBB29A4224
:100D8000E4B206D911F8016B42AB234403F8FC6CC2
:100D9000F1E7D31C0022DBB20092012103AA8DF8F7
:100DA0000D3005F07FF943B0F0BD00BFF80C002016
:100DB000090000201FB50C4B1B7813F0FB030FD16B
:100DC0000A4A127862B14FF47872ADF80C203222E0
:100DD00000938DF80E20032303AA012105F062F988
:100DE00005B05DF804FB00BFF80C002009000020EE
:100DF000F0B5164BA5B01B78052B00D01BBB144BD0
:100E00001B7803B3E023ADF80C304023CDB28DF84E
:100E10000E30C5F10307CBB2DC195B1BDBB29A4283
:100E2000E4B206D911F8016B24AB234403F8846CB7
:100E3000F1E7D31C0022DBB20092012103AA8DF856
:100E40000D3005F02FF925B0F0BD00BFF80C0020E3
:100E5000080000201FB50C4B1B78052B00D083B970
:100E60000A4B1B786BB14FF47873ADF80C3041230B
:100E70008DF80E30002303AA00930121032305F00F
:100E800011F905B05DF804FBF80C00200800002003
:100E9000F0B5164BA5B01B78072B00D01BBB144B2D
:100EA0001B7803B3E023ADF80C304523CDB28DF8A9
:100EB0000E30C5F10307CBB2DC195B1BDBB29A42E3
:100EC000E4B206D911F8016B24AB234403F8846C17
:100ED000F1E7D31C0022DBB20092012103AA8DF8B6
:100EE0000D3005F0DFF825B0F0BD00BFF80C002094
:100EF00007000020F0B5164BA5B01B78072B00D0DB
:100F00001BBB144B1B7803B3E023ADF80C30462316
:100F1000CDB28DF80E30C5F10307CBB2DC195B1BE7
:100F2000DBB29A42E4B206D911F8016B24AB234438
:100F300003F8846CF1E7D31C0022DBB2009201219C
:100F400003AA8DF80D3005F0ADF825B0F0BD00BF57
:100F5000F80C0020070000201FB50C4B1B78072B56
:100F600000D083B90A4B1B786BB14FF47873ADF89E
:100F70000C3049238DF80E30002303AA0093012181
:100F8000032305F08FF805B05DF804FBF80C002092
:100F9000070000201FB50C4B1B78072B00D083B92E
:100FA0000A4B1B786BB14FF47873ADF80C304823C3
:100FB0008DF80E30002303AA00930121032305F0CE
:100FC00071F805B05DF804FBF80C00200700002064
:100FD00010B590F88331A4B0CBB1E023ADF80C305C
:100FE000F12300228DF80E30D4B20C5DD31CDBB29D
:100FF00001322CB10DF1900C634403F8844CF3E7FB
:10100000012103AA00918DF80D3005F04BF824B0B2
:1010100010BD00002DE9F04F162A8DB0079003D8BF
:1010200004200DB0BDE8F08F0B78079A0893C3F346
:10103000001382F883318E78322EF1D84D78CC7837
:1010400005F02003052C05F0020905F0040805F061
:10105000080705F0100A0A9305F0400B7DD9072C0C
:1010600000F09F80062C00F09780A4F15C03DBB2B7
:10107000092BD5D840F2D13222FA03F313F0010F35
:10108000CED08B790F2B0B93CAD8089B9C4AC3F305
:10109000C00309934B7991F80BE09B101370099BE7
:1010A000487A8A7A049391F811C07346CDF80CC03F
:1010B00091F815C005F00105CDF808C091F80FC0F2
:1010C000CDF804C0097B009101468E4804F0FAF97E
:1010D00019F1000918BF4FF0010918F1000818BFF5
:1010E0004FF00108DFF868C2003718BF01271AF176
:1010F000000A18BF4FF0010A8CF800501BF1000BDA
:101100000A9D18BF4FF0010B003518BF01257E4B1B
:101110007E4A83F800B07E4BDFF838E21D70A4F100
:101120005C057C487C49EDB2082D82F800A08EF861
:10113000009080F800800F709046E3467746824624
:101140008946764A32D840F25113EB40D9073DD454
:1011500014700022724B1A704DE0012C02D115F070
:10116000010F8DE7022C03D1B9F1000F89D157E7A8
:10117000032C03D1B8F1000F83D151E7042C03D124
:10118000002F7FF47EAF4BE7052C7FF47AAFBAF1E6
:10119000000F7FF476AF43E70A9B002B7FF471AF1B
:1011A0003EE7BBF1000F7FF46CAF39E7652CCFD180
:1011B0000121197006231370594B1C70079B93F87B
:1011C0008431C3B14F4804F0BBF914E001238EF819
:1011D000003002231370524B1C70079B93F884312C
:1011E00013B1484804F0ACF9602C04D1012202216B
:1011F000444803F025FF9DF920304A4AD943002B8B
:101200004FEAD17111700ADB454B1B783BB9632C57
:1012100005D045484549FFF7DBFE062001E731468A
:10122000434802F0DDF83146424801F07DFE314688
:10123000414802F09BF93146404804F0C1FD314677
:101240003F4803F053FC31463E48FFF71DF9314655
:101250003D48FFF7AFF80B993C4803F081FB099933
:10126000284801F07DFC079B93F8843133B1092DA8
:1012700004D840F25133EB40DB0707D49BF8003031
:10128000C3B1012211461F4803F0DAFE1D4801F0E8
:10129000E7FB1C4804F084FB092D2FD840F25130A5
:1012A000E840C04310F0010028D10123079A82F8DA
:1012B0008431B6E63B7813B101220221E3E79AF8C4
:1012C000003013B101220321DDE799F8003013B19A
:1012D00001220421D7E798F8003013B1012205213B
:1012E000D1E7094B1B7813B101220721CBE7084B4B
:1012F0001B78002BCAD001220621C4E7002090E60B
:10130000040000208C0700200700002008000020B7
:101310000A0000200B00002009000020F80C00202B
:10132000EC0C0020F00C002094100020E68D00084A
:1013300018070020B8120020A00E0020500D002039
:1013400024080020B40F002050030020C802002011
:10135000060000200500002038B54B1E0C46062B69
:101360007FD8DFE803F00C043843517662003F4930
:101370003F48FFF72DFE3F4800F0E4FC06E03C4804
:101380003D49FFF725FE3D4803F008F83C4802F0D0
:10139000F2FE3C4802F00CFB3B4802F08DF93B4862
:1013A00001F000FC3A4804F057FF3A4D2C7064B14C
:1013B000394B1B78A34208D038492D48FFF708FE67
:1013C00001222146364803F03BFE29783448BDE827
:1013D000384001F00DBA33492548FFF7F9FD274899
:1013E00002F0DCFF234800F0ADFCD2E72E49204894
:1013F000FFF7EEFD214802F0D1FF1E4800F0A2FCED
:101400001F4802F0B8FEC7E728491948FFF7E0FD7A
:101410001A4802F0C3FF174800F094FC184802F085
:10142000AAFE184802F0C4FAB9E721491048FFF7AC
:10143000CFFD124802F0B2FF0E4800F083FC1048C6
:1014400002F099FE0F4802F0B3FA0F4802F034F9A7
:10145000A8E718490648FFF7BBFD084802F09EFFC1
:1014600089E715490248FFF7B3FD9EE7368D00086E
:1014700094100020B8030020468D0008C802002008
:1014800020120020A80D0020000D0020E4070020FD
:1014900094010020F80C0020F90C0020C88D0008F1
:1014A0008C070020598D0008738D0008838D00087B
:1014B000948D0008A48D0008B78D000810B504466F
:1014C000BAB12C4B09781B788B422FD0052921D932
:1014D00007293DD006293DD0632921D0A1F15C0325
:1014E000DBB2082B07D840F2511222FA03F3DB07D4
:1014F00032D404201BE06529FBD101221E4B1A7057
:101500001E4B197090F8843113B11D4804F018F87F
:10151000062108E001290BD11A4B1B78002BE8D0DB
:101520000022164B1A702046FFF716FF002010BD50
:10153000022901D1144BF0E7032901D1134BECE749
:10154000042901D1124BE8E70529E9D1114BE4E761
:10155000114BE2E7084BE0E701220B4B1A70074BF7
:10156000197090F8843113B1054803F0E9FF0221A6
:10157000D9E700BFF80C00200A000020EC0C002086
:101580008C07002006000020050000200B00002032
:1015900009000020080000200700002070B590F826
:1015A0008331A4B0054633B3E023ADF80C30F1230A
:1015B00003248DF80E30E31EDBB2CE5C601C24AB3E
:1015C000C0B223441EB103F8846C0446F3E7202123
:1015D00003F8841C03ABC0F18201184402F0BAF98D
:1015E000012104F10A03DBB2009103AA28468DF819
:1015F0000D3004F057FD24B070BD70B590F8833104
:10160000A4B013B3E023ADF80C30F2238DF80E3004
:101610000323DC1EE4B20E5D24AD5C1CE4B21D4469
:101620001EB105F8846C2346F3E7111205F8841CFB
:1016300024A90C440121023304F8842CDBB200916C
:1016400003AA8DF80D3004F02DFD24B070BD00000C
:10165000F8B50446A94EAA4D0121204604F014FD18
:101660000746002800F027820121204604F014FDDF
:1016700094F8002142B9E02802BF0123207084F8C9
:10168000003184F80121E7E7012A06D102236070C6
:1016900084F8010184F80031DEE7A054531C94F86B
:1016A0000111DBB2994284F80031D5D1A3781A2B0D
:1016B00000F0508149D8082B00F0B28017D8022BD7
:1016C00000F09B8007D8002B00F09380012B00F0E6
:1016D0008C800121B9E0032B00F09B80042BF8D112
:1016E000023AD2B2E11C2046FFF79CF98BE0112BA5
:1016F00000F0DC801ED80A2B00F0BA80102BE8D155
:10170000804B1B78002B00F0CD802B78012B00F252
:10171000C980023AD2B2E11C7B4801F02FFC074697
:10172000002840F0C0802B784BB901212046FFF7FC
:1017300013FE04E0132B00F0CE80182BC9D1002338
:1017400084F8003184F8013186E7402B00F04E81A7
:1017500023D8202B00F0168103D81C3B022BEED996
:10176000B7E7302B00F02781312BB2D1674B1B78C4
:10177000002B00F039812B7813F0FB0F40F03481FF
:10178000023AD2B2E11C624801F053FE074600283B
:1017900000F020813AB25F4953E0492B00F05A81B2
:1017A0001BD8452B00F03B81462B92D15A4B1B781E
:1017B000002B00F04D812B7813B1072B40F04881AE
:1017C000023AD2B2E11C554803F0EEF80746002871
:1017D00000F034813AB2524933E0502B00F04F818F
:1017E000FFF477AF903B012BB9E72046FFF716F8DF
:1017F000A5E72046FFF7F6F8A1E7023AD2B2E11CCE
:101800002046FFF707FC0146F8B92046FEF7DAFF4D
:1018100095E7023AD2B2E11C2046FFF74FFEF2E70D
:10182000404B1B78622B01D05C2B12D1023AD2B212
:10183000E11C3D4803F02EFA07460028E5D03B495D
:101840003AB23B48FFF7D9FE39462046FEF7CFFFB4
:1018500075E7652B06D1023AD2B2E11C3548FEF796
:1018600027FEE9E703F0FB03602BCED00227E6E773
:101870002B78ABB90122304B612130481A7003F04C
:10188000DFFB94F80121E11C033AD2B22C4804F0AA
:1018900071FC074600283FF452AF3AB22949D0E71D
:1018A0000527FAE702273AB22749CAE7154B1B7802
:1018B0007BB12B78012B0CD8023AD2B2E11C124832
:1018C00001F082FB074600283FF42DAF3AB21F49D2
:1018D000B7E70227FAE70B4B1B7863B12B78012B94
:1018E00009D8094801F096FB074600283FF41BAFD2
:1018F0003AB21749A5E70227FAE700BF0500002022
:10190000F80C002006000020180700200900002025
:10191000A00E0020868C000807000020240800206C
:10192000DF8C0008EC0C0020680100209F8B000871
:1019300094100020B40F0020EE0C00208C07002033
:1019400094010020C18B0008D48B0008F38B0008A1
:10195000108C000833788BB12B7813F0FD0F0DD16C
:10196000023AD2B2E11C5A48FEF761FC074630B990
:101970002B78002B7FF4E3AE0221D7E602273AB2A0
:1019800054495EE7544B1B788BB12B780BB1032B7A
:101990000DD1023AD2B2E11C504801F033FA0746A9
:1019A00030B92B78002B7FF4CAAE0321BEE60227A4
:1019B0003AB24B4945E74B4B1B788BB12B7813F070
:1019C000FB0F0DD1023AD2B2E11C474801F031FDC4
:1019D000074630B92B78002B7FF4B1AE0421A5E681
:1019E00002273AB241492CE70227D3E6404B1B7845
:1019F0008BB12B780BB1052B0DD1023AD2B2E11C81
:101A00003C4804F02BF9074630B92B78002B7FF4C3
:101A100096AE05218AE602273AB2374911E7374BDD
:101A20001B788BB12B780BB1072B0DD1023AD2B2B8
:101A3000E11C334802F0B8FF074630B92B78002B81
:101A40007FF47DAE072171E602273AB22D49F8E610
:101A50000227BFE6294B1B787BB12B780BB1072BF4
:101A60000BD1023AD2B2E11C254802F09DFF074695
:101A70000028E3D03AB22449E3E60227FAE7234BF1
:101A80001B78A3B12B780BB1062B10D10121204B71
:101A9000023A1970D2B2E11C1E48FEF7B9FC0746A3
:101AA00030B92B78002B7FF44AAE06213EE60227A0
:101AB0003AB21949C5E6194801F058F84BF67F3398
:101AC000984284BF84F8007184F80171F8BD00BFAA
:101AD000500300202C8C00080B000020B8120020BE
:101AE000468C000809000020A00E00206A8C000827
:101AF00008000020500D00209F8C000807000020E7
:101B000024080020BA8C0008008D00080A0000207C
:101B1000FA0C0020B40F0020198D00088C0700205B
:101B2000F0B51E4690F88331A5B073B3E023ADF84D
:101B30000C30F32303248DF80E30E31EDBB2CF5CB0
:101B4000651C24ABEDB223441FB103F8847C2C4602
:101B5000F3E7111203F8841C012124AB1D4405F89E
:101B6000842CA21CD2B21A44331202F8843C221DE7
:101B70000334D3B2E4B224AA144404F8846C03AA54
:101B800000918DF80D3004F08DFA25B0F0BDF0B560
:101B900090F88341A5B0BDF9A860002C3CD0E024AA
:101BA000ADF80C40F4248DF80E400324E51EEDB290
:101BB00011F805C024AF651CEDB22744BCF1000F3D
:101BC00003D007F884CC2C46F0E7111207F8841CE8
:101BD00024A90D4405F8842CA21CD2B20A4419127F
:101BE00002F8841CE21C24A9D2B20A4402F8843C04
:101BF000231DDBB20B44321203F8842CA31D0534E1
:101C0000E4B20C44012104F8846CDBB2009103AA15
:101C10008DF80D3004F046FA25B0F0BDF0B590F81F
:101C20008341A5B0BDF9A870BDF9AC60002C49D0C6
:101C3000E024ADF80C40F5248DF80E400324E51E99
:101C4000EDB211F805E00DF1900C651CEDB2A44465
:101C5000BEF1000F03D00CF884EC2C46EFE7111214
:101C60000CF8841C24A90D4405F8842CA21CD2B2C3
:101C70000A44191202F8841CE21C24A9D2B20A44B4
:101C800002F8843C231DDBB20B443A1203F8842C87
:101C9000631DDBB20B4403F8847CA31DDBB20B4451
:101CA000321203F8842C04F108030734E4B20C4424
:101CB000012104F8846CDBB2009103AA8DF80D3089
:101CC00004F0F0F925B0F0BD30B500240025002364
:101CD000C0E90245037000F1100200F1740102F83E
:101CE000013B9142FBD10021C0E91D33C0E91F3304
:101CF000C0E92133C0F88C3000F59C7200F19003EC
:101D000043F8041B9A42FBD1002100F5F07342F81E
:101D1000041B9342FBD1002100F5227243F8041BFF
:101D20009342FBD1002100F54C7243F8041B9A4208
:101D3000FBD10021134600F25A3203F8011B9A42EC
:101D4000FBD130BD30B50023002400250370C0E96D
:101D50000245C0E91D3330BD2DE9F0470B68D0F8CE
:101D60008070D0F888500E6907EB030C2E44B44500
:101D7000C46FE646A8BFB646B445B4BF304E314E38
:101D80004FEAD40300EB830304F00702D3F89080FA
:101D9000B5BFB65CB65C06EA080646EA0806C3F8B4
:101DA00090604E68D3F8E0A137444E69BC46354494
:101DB000AF42A8BFAC46AF42B4BF214D214DD3F8CE
:101DC0003861B5BFAD5CAD5C35403543C3F83851C3
:101DD0008D68D0F884608F6906EB0509D0F88C50C7
:101DE000C8462F44B945A8BFB846B945B5BF144F3A
:101DF000144FBF5CBF5CB4BF07EA0A0747EA0A0793
:101E0000C3F8E071CF68C9693E4429448E42354623
:101E1000A8BF0D468E42D3F888720CDA08498A5C56
:101E20003A40C3F888220134C0E920ECC0E9228599
:101E3000C467BDE8F08703498A5C3A43F1E700BF15
:101E4000149000081C90000870B5D1E9003283F0AE
:101E5000010588B0D11882F001062A44334400916C
:101E60007419CDE90512694601940293CDE9032462
:101E70000793FFF771FF08B070BD0000002240F229
:101E800049111346F0B5264C264E032B19D8DFE82E
:101E900003F0021C303CCD1001F007032435E75C51
:101EA00050F825303B4018BF022300EBD20702F068
:101EB0000705755D97F830C305EA0C0587F83053C0
:101EC000013211F1FF31E0D2F0BDCD1001F0070376
:101ED0004E35E75C50F825303B4018BF022300EB3D
:101EE000D20702F00705655D97F830C345EA0C0597
:101EF000E4E7CB10783301F0070550F82330655D37
:101F00001D420CBF01230323CFE7CD10A23501F002
:101F10000707E75D50F825502F4208BF0123DEE791
:101F20001C900008149000084FF0FF3230B5104D9F
:101F3000481E01F1260410F8013F5340DBB235F88A
:101F40001330C2F30722534084421A46F3D1DB43D5
:101F500091F827009BB2DAB2904207D191F828207D
:101F6000B2EB132F0CBF0120002030BD0020FCE796
:101F7000148E00082DE9F04300230446874F1546D0
:101F800099B04A1E12F8010FDE5D01337040532BE9
:101F90001070F7D10023184603AA98540133542B2C
:101FA000FBD1DFF800E20022764680270EEB4200EC
:101FB000B2F5257F57DB00264FF0800801274FF050
:101FC0004009C4E92066C4E92266E66718AB03EB62
:101FD000E60313F8542C06F0070328FA03F1114026
:101FE00029FA03F30CBF0291029701A9134020467E
:101FF00006F1020614BF01970193FFF725FFB6F51E
:10200000257FE3D1FFF73AFF00216B1E05F128027F
:1020100003F8011F9A42FBD140F2491101270846FB
:102020005F4E04EBE10201F0070E92F830C316F8A0
:102030000E20431A1CEA020F09D0DA0815F802C074
:1020400003F0070307FA03F343EA0C03AB5411F15F
:10205000FF31E6D229462046FFF766FF19B0BDE8FA
:10206000F0831A46A4E7D31011F803C01CF0010F47
:102070000CD090F8008018AB9844437818F8549C22
:1020800027FA03F343EA090308F8543C1CF0020F53
:102090000CD090F8028018AB9844C37818F8549C80
:1020A00027FA03F343EA090308F8543C1CF0040F31
:1020B0000CD090F8048018AB9844437918F8549CDD
:1020C00027FA03F343EA090308F8543C1CF0080F0D
:1020D0000CD090F8068018AB9844C37918F8549C3B
:1020E00027FA03F343EA090308F8543C131DB3F538
:1020F000257F00F10800B4DA1CF0100F0FD016F89D
:1021000013000DF1600806EB430340445B7810F8C0
:10211000548C27FA03F343EA080300F8543C1CF0FC
:10212000200F10D0531D16F813000DF1600806EBB8
:10213000430340445B7810F8548C27FA03F343EAD6
:10214000080300F8543C1CF0400F10D0931D16F803
:1021500013000DF1600806EB430340445B7810F870
:10216000548C27FA03F343EA080300F8543C1CF0AC
:10217000800F10D0D31D16F813000DF1600C06EB84
:10218000430360445B7810F854CC27FA03F343EA26
:102190000C0300F8543C083208E700BF34900008F4
:1021A0001C9000088F90000829220148FEF75CBCB3
:1021B000941000202DE9F0480446D0E9022312EBE8
:1021C000020B43EB030CC0E902BC406F8CB004EB84
:1021D000D0073D7C00F00706002935D063464BF060
:1021E0000102C4E902231A4B9B5D1D430130B0F587
:1021F000487F3D74606702D92046FFF7A3FD636FF7
:10220000B3F5257F1BD104F1100501AA294620460C
:10221000FFF7B0FEB0B101210E4800F091FC01A91A
:102220002046FFF7C1FF0E220021284606F062F982
:1022300000236367022323704FF41653A3670CB087
:10224000BDE8F0882070FAE7034B9B5D1D40CDE7A9
:102250002C9000088C070020249000080C220148D4
:10226000FEF732BC9410002070B5D0E90223951817
:10227000044643EB030681B9C0E90256D4E90201E2
:10228000002380F0AA30194601F042FB02280AD848
:102290000023314A1360237070BD334645F00102BC
:1022A000C0E90223EAE70026D4E9020126A3D3E924
:1022B000002320F07F4585EA020086EA030101F051
:1022C00027FB02280DD825492548FEF781FE532219
:1022D000002104F1100006F00DF9002363670123CB
:1022E000D9E70026D4E9020119A3D3E9002320F09D
:1022F0007F4586EA030185EA020001F009FB0646F4
:102300000028C9D117491648FEF762FE0121164878
:1023100000F016FC154A04F11005136829462361E4
:102320005368204663619368A361FFF797FF0E220D
:102330003146284606F0DEF84FF416536667A36769
:102340000223A8E7AFF3008050765500000000009C
:1023500068B4AA0000000000F40C00200B960008EE
:1023600094100020349600088C070020B7950008D0
:102370002DE9F74F0446D0E9022312EB020A43EBA2
:10238000030BC0E902AB406F04EBD00C9CF810507B
:1023900000F0070E002900F0B3805B464AF001020E
:1023A000C4E902235E4B13F80E301D430130B0F533
:1023B000487F8CF81050606702D92046FFF7C2FCB6
:1023C000D4E902014FF0FF324FF6FF7300EA020A30
:1023D00001EA030B4EA3D3E900238AEA02008BEA49
:1023E000030101F095FA01280FD84E494E48FEF737
:1023F000EFFD00214D4800F0A3FB4B48FEF7B2FB78
:102400000023237003B0BDE8F08F636F5C2B36D8D8
:102410004FF0000A636F602B20D1BAF1000F1DD17D
:1024200001256FF07F43424A0027D4E9020123FAD5
:1024300005F622FA05F801EA070C00EA060B8BEA1A
:1024400008008CEA07010193009201F061FADDE9CE
:10245000002303282CD8636F5D1B6567A56F013DC2
:10246000A5674DBB33493048FEF7B2FD29462F48DA
:1024700000F066FB2C48FEF757FB2570C2E74FF0D3
:10248000000BD4E9020124A3D3E9002320F07F4A02
:102490008AEA02008BEA030101F03AFA0328B7D86E
:1024A00060224FF416534FF0010AC4E91D23B1E72F
:1024B0000135042DB8D1D1E7636F602BA2D104F1AF
:1024C0001005BAF1000F15D0552363762D23A3769E
:1024D00016232946E3762046FFF7C0FE0121134864
:1024E00000F02EFB0E220021284606F003F8002300
:1024F000636787E70C2229460B48FEF7E5FAEDE70C
:102500000D4B13F80E301D4050E700BFAFF30080B5
:102510005E13AAAAAAAA000068B4AA0000000000DC
:102520002C900008C3950008941000208C07002010
:1025300068B4AA00E3950008249000080378012BF2
:1025400005D002D3022B04D07047FFF78DBEFFF7F2
:1025500031BEFFF70DBFF8B50546062600277D24DE
:102560004FF47A71284601F0E9FD013CF8D187F07B
:102570000104E4B23946284601F086FD214628468A
:1025800001F0C4FD2146284601F08EFD2146284673
:1025900001F092FD2146284601F096FD214628468D
:1025A00001F09AFD2146284601F09EFD214628466D
:1025B00001F0A2FD2146284601F0A0FD2146284653
:1025C00001F0ACFD013E00D1F8BD2746C7E7000091
:1025D00070B500250446012605724FF480610C3069
:1025E00003F050FA4FF4806104F1200003F04AFA3E
:1025F00025652046A4F8545084F83450A56384F827
:102600003C50256484F8445084F84C60A4F856503B
:1026100001F0B0FB3146204601F006FD3146204670
:1026200001F032FD2946204601F070FD2946204682
:1026300001F03AFD2946204601F03EFD294620469C
:1026400001F042FD2946204601F046FD294620467C
:1026500001F04AFD2946204601F04EFD294620465C
:1026600001F04CFD2946204601F058FD2946204640
:1026700001F012FD2946204601F0B2FC2946204611
:1026800001F0B6FC2946204601F0C6FC2046FFF7C3
:1026900062FF024B20461D6070BD00BFF40C00209D
:1026A0002DE9F8431E46037A054688469146BBB19C
:1026B000002400F120074C450AD018F804102EB968
:1026C0003246384603F02CFA0134F4E7325DF8E77D
:1026D000044C237823B9284602F072FC01232370AE
:1026E000BDE8F883FB0C0020203003F0E0B9203077
:1026F00003F096BA0C3003F093BA0000F8B50E461A
:1027000019461546069C02F0D7FE2A4B2A49F218B4
:102710008A421A461AD92B448B4217D9274B28498B
:10272000F018884212D92B448B420FD9254B2649E9
:10273000F01888420AD92B448B4207D9234B2449ED
:10274000F018884202D92B448B4230D8A3181A4A79
:1027500093420ED9194B1A4A2344934209D9194B73
:10276000194A2344934204D9184B194A23449342EB
:102770001DD8184A1848B318834218D9AB18834299
:1027800015D9164B1649F7188F4210D9EF188F42FA
:102790000DD9224482420AD923448B4207D9002012
:1027A000104B1E60104B1D60104B1C60F8BD0420C8
:1027B000FCE700BF00BC6AF7FF083D00004FF7E6EA
:1027C000BF3B47034053F2F27F8D5B008019D0CDB1
:1027D000FFF26F06C0444FF7400D0300406D12E654
:1027E000C0C62D0054130020581300205C13002095
:1027F000F8B50D4604464B1E5942594101F054FCB0
:10280000AA1E51425141204601F056FCE91E4F429A
:102810004F413946204601F057FC281F46424641A9
:102820003146204601F058FC3946204601F04CFC68
:10283000314620466E1F01F04FFC71427141204627
:10284000AF1F01F051FC79427941204601F056FC5E
:10285000A5F1070CDCF100012046BDE8F84041EB92
:102860000C0101F049BC0000836B37B5027A0133DB
:1028700004468363002A00F09380036DB3F5964FFE
:102880000DD3694B1A78511E042901D9072A04D1A6
:10289000002120461970FFF7ABFF0023236545F6A2
:1028A000BF53A26B9A420AD9002394F84C10A36339
:1028B00081F0010184F84C10204601F0E5FB04F1A1
:1028C000200003F011F9594DF8B9594B1B78E3B1C9
:1028D000584B1A7842B1187094F8453023B1012250
:1028E0002978554802F0ACFB544B1A784AB10022C3
:1028F0001A7094F8453023B1012229784E4802F02D
:102900009FFB0021204602F079FB2B78022B0CBFA5
:102910004FF470624FF4F062494B1968914229D329
:1029200000221A60404B1B7823BB236C13BB94F826
:102930003C30FBB13F4B1B78E3B9404B1B78CBB924
:1029400094F8443094F845105A1CB2FBF1F301FBA3
:10295000132384F84430234493F846102046FFF7AD
:1029600047FF94F844300122234493F8461032483C
:1029700002F066FB0C34204603F0B6F8E0B10DF12E
:1029800007020DF10601204603F010F92B78013BF8
:10299000062B11D8DFE803F0121B242D36103F0060
:1029A00028498B4208D990F84C10826381F00101CC
:1029B00080F84C1001F068FB03B030BD9DF80610A4
:1029C0002148003118BF0121FFF7B8FDF4E79DF859
:1029D00006101E48003118BF012101F06FFEEBE721
:1029E0009DF806101A48003118BF012101F0ACFC17
:1029F000E2E79DF806101748003118BF012101F0E9
:102A000097F9D9E79DF806101348003118BF012146
:102A100000F038FFD0E79DF806101048003118BFCD
:102A2000012100F0CDF9C7E7F80C0020F90C0020D7
:102A3000FB0C0020EE0C00208C070020FA0C00207C
:102A4000F40C00207FA90300B8030020C802002076
:102A500020120020A80D0020000D0020E407002017
:102A6000002310B580F845302E4B04461B7823B167
:102A7000012380F8463080F845302B4B1B7843B15A
:102A8000022194F84530E218013382F8461084F8A8
:102A90004530264B1B7843B1032194F84530E218AA
:102AA000013382F8461084F84530214B1B7843B13E
:102AB000042194F84530E218013382F8461084F876
:102AC00045301C4B1B7843B1052194F84530E21882
:102AD000013382F8461084F84530174B1B7843B118
:102AE000072194F84530E218013382F8461084F843
:102AF000453094F84530012B0AD9012384F83C3045
:102B0000237A23B9204601F043FA0123237210BD32
:102B1000002384F83C30094B20461978FFF768FE03
:102B2000EEE700BF06000020050000200B0000209B
:102B3000090000200800002007000020F80C0020F9
:102B400038B5064B0D461C788C421C4603D0012339
:102B5000036401F0E3FA257038BD00BFEF0C0020DC
:102B600080F834107047002303657047006D70478C
:102B7000B0F854300B80B0F8563013800023A0F822
:102B80005430A0F8563070470023021D0370438074
:102B900000F1370102F8013B8A42FBD1C363431DB8
:102BA00083637047002303704380C3637047000052
:102BB00010B5438804465B009BB2D9B96380608836
:102BC00080F4AB4080F0770000F086FEA8B917498A
:102BD0001748FEF7FDF95522A36B01211A70F72261
:102BE000A36B5A70134B2170E3631348BDE8104088
:102BF000FFF7A6BF43F00103E0E7608880F47F4061
:102C000080F05D0000F068FE78B90C490848FEF7D6
:102C1000DFF9FF22A36B01211A705D22A36B5A70AA
:102C2000044BE36302232370DFE710BDE096000846
:102C300094100020100004008C0700200597000865
:102C400031220148FEF724B99410002031220148B6
:102C5000FEF750B99410002070B504464388828F67
:102C60005B009BB24E4E4380D01002F00702A56B72
:102C7000B25C002900F08F8043F0010363802B5C7D
:102C80001A432A54A38F01339BB2B3F5C07FA387A5
:102C900081BF0023E36323706380A38F0F3B022B6C
:102CA00044D8608880F4AB4080F0770000F014FED8
:102CB00002280BD8A28F3B49103A12B23A48FEF7CD
:102CC0009CFC3A4BE3630123237070BD608880F461
:102CD0007F4080F05D0000F0FFFD02280AD8A28F3F
:102CE0003349103A12B23048FEF787FC2F4BE363AA
:102CF0000223E9E7608880F4AA4080F05D0000F0DC
:102D0000EBFD022812D8A28F2A49103A12B22648A7
:102D1000FEF773FC00212848FFF712FF2248FEF758
:102D20001BF9002323706380E363CEE7A38FB3F521
:102D3000C07FCAD1E58F013DADB2E58775B91F49A6
:102D40001948FEF745F929461B48FFF7F9FE1648D2
:102D5000FEF720F925706580E563B6E72646EB1E91
:102D60005D425D4106F8045F2378012B09D0022BF8
:102D70000CD033220021304605F0BCFB0023A38792
:102D8000A3E731462046FFF75BFFF2E731462046D6
:102D9000FFF75CFFEDE72B5C23EA020271E700BF5F
:102DA0005C9600086496000894100020100004004F
:102DB00086960008A49600088C070020BF9600089D
:102DC0000378013B012B01D8FFF746BFFFF7F0BEA8
:102DD00010B540F2DC51044600F0D8FB002304F1AA
:102DE000100204F1920102F8013B8A42FBD1F02269
:102DF000A4F89230A4F89430A4F8962084F898307F
:102E0000204610BD792A70B506460C460ED100F05A
:102E1000D0FB77280CD904F1780514F8011F30464F
:102E200000F000FCAC42F8D1002070BD0420FCE7AB
:102E30000520FAE72DE9F3410D46082400274FF05D
:102E400001080D4E2B064FF001024FF000030DF16B
:102E50000701304604F1FF344CBF8DF807808DF830
:102E600007706D00FFF71CFC14F0FF04EDB2E9D110
:102E700002B0BDE8F08100BF8C07002070B50446A9
:102E800000F0B4FBB4F8923000B993B363B9244AAC
:102E900012787ABB012384F89830B4F89630A4F8FD
:102EA00092300023A4F89430B4F892300BB31D484C
:102EB000FFF71AFC0546082D1BD9B4F8943094F896
:102EC00098105A1C92B2A4F8942029B37721204676
:102ED000FFF7B0FFB4F89420B4F89230083D9A425E
:102EE000ADB2E8D30023A4F89430A4F8923084F86B
:102EF000983070BD782584F89830B4F892602046F8
:102F0000731CA4F8923000F0B0FB013D264415F08C
:102F1000FF053074F1D1C4E72344197CD7E700BF23
:102F2000FB0C00208C07002001EB4101890001F51A
:102F30001671A0F89610704708B500F03AFB782398
:102F4000B0FBF3F080B208BD10B54FF47A710446BF
:102F500000F01CFB002304F1100204F16A0102F8E6
:102F6000013B8A42FBD13C22A4F86A30A4F86C30C1
:102F7000A4F86E2084F87030204610BD292A70B560
:102F800006460C4619D100F014FB292806D802B2D7
:102F90000B490C48FEF731FB052070BD002130467F
:102FA00000F040FB651E283415F8011F304600F084
:102FB00039FBA542F8D10020EFE70420EDE700BF80
:102FC000B19C0008941000200C2A70B506460C46EF
:102FD00019D100F0EEFA0C2806D802B20B490C48C1
:102FE000FEF70BFB052070BD0121304600F01AFBF7
:102FF000651E0B3415F8011F304600F013FBA54287
:10300000F8D10020EFE70420EDE700BFEE9C0008B8
:103010009410002010B5044600F0CBFA024628B9FF
:1030200005480649FEF7E9FA052010BD02212046B1
:1030300000F0F8FA0020F8E794100020D19C000876
:10304000002318462DE9F04F97B001AC1855D05425
:103050000133532BFAD100204FF0010E04460546F0
:10306000DFF8B4C10139234606462C46002711F883
:10307000018F0EFA07F518EA050F14BF0125002588
:1030800005EB030923442B44DB0709F001090CD5A8
:1030900006F007031CF803A016AB03EBD60313F8E6
:1030A00054BC4AEA0B0A03F854ACB9F1000F0ED035
:1030B000731C0DF1580909EBD30903F0070319F844
:1030C00054AC1CF8033043EA0A0309F8543C0137B6
:1030D000082F06F10206234640F087801030B0F535
:1030E000287FC0D14A4F00233846012407EB430113
:1030F000B3F5257F7DD216AD05EBD30515F8545CED
:103100002E060AD591F800C04E7812F80CE004FAA9
:1031100006F646EA0E0602F80C606E060AD591F82D
:1031200002C0CE7812F80CE004FA06F646EA0E0663
:1031300002F80C60AE060AD591F804C04E7912F878
:103140000CE004FA06F646EA0E0602F80C60EE06FB
:103150000AD591F806C0CE7912F80CE004FA06F60A
:1031600046EA0E0602F80C601E1DB6F5257F01F139
:1031700008013CD229070BD510F816C000EB460613
:10318000717812F80C6004FA01F1314302F80C1066
:1031900069070CD5591D10F8116000EB4101497801
:1031A00012F806C004FA01F141EA0C019155AE078C
:1031B0000CD5991D10F8116000EB4101497812F807
:1031C00006C004FA01F141EA0C019155E9070AD55C
:1031D000D91D10F8115000EB41014978565D04FAF1
:1031E00001F131435155083380E72C4641E733461E
:1031F0007EE70023074C013A12F8011F185D0133E6
:103200004140532B1170F7D117B0BDE8F08F00BFCC
:10321000899700082E970008269700082DE9F743A4
:1032200001240F4608254FF00008A1460D4E34EA50
:1032300007034FF001024FF000030DF10701304684
:1032400005F1FF350CBF8DF807908DF807806400FD
:10325000FFF726FA15F0FF05E4B2E8D103B0BDE8A8
:10326000F08300BF8C07002070B5A2B0044600F0C8
:10327000BDF918B9B4F86A30002B3BD0204600F0F5
:10328000EFF9B4F86A5000285DD17DB9524B1B7834
:1032900093BB012384F87030B4F86E30A4F86A3020
:1032A0000023A4F86C30B4F86A301BB34B48FFF726
:1032B0001BFA0546082D1DD9B4F86C3094F870102F
:1032C0005A1C92B2A4F86C20002900F08180AA2137
:1032D0002046FFF7A3FFB4F86C20B4F86A30083D2D
:1032E0009A42ADB2E6D30023A4F86C30A4F86A3059
:1032F00084F8703022B070BD84F87050204600F021
:10330000B4F901AE204600F0B0F970550135292D11
:10331000F8D1314620460DF13202FFF791FE4AF214
:10332000EA6322A820F8583D0023B4F86A10CA18AE
:103330001D5C92B201332244552B1574F7D15531DF
:10334000A4F86A10ACE7012816D1002DAED184F89C
:103350007050204600F089F90C25B4F86A602046C8
:10336000731CA4F86A3000F080F9013D264415F082
:10337000FF053074F1D193E7022894D1002D95D147
:1033800084F87050204600F070F9C82655207A2540
:10339000B4F86A3003F1120189B2E21810745A1CB1
:1033A00092B2224410749A1C92B222441074DA1C15
:1033B00092B2224410741A1D92B2224416745A1DFD
:1033C000063392B29BB2224499421574E5D1B7E715
:1033D0002344197C7CE700BFFB0C00208C070020F5
:1033E00001EB410149009631A0F86E10704708B515
:1033F00000F0DFF80D23B0FBF3F080B208BD10B58C
:1034000040F2DC51044600F0C1F8002304F1100240
:1034100004F5857102F8013B8A42FBD1F022A4F841
:103420000A31A4F80C31A4F80E2184F8103120469A
:1034300010BD122AF8B506460F46144614D900F0FE
:10344000B8F8844212D8013CE1B2304600F0EAF804
:103450000025EBB29C4205F1010509D93B4459789E
:10346000304600F0DFF8F4E70420F8BD0520FCE763
:103470000020FAE72DE9F3410D46082400274FF01C
:1034800001080D4E2B064FF001024FF000030DF125
:103490000701304604F1FF344CBF8DF807808DF8EA
:1034A00007706D00FFF7FCF814F0FF04EDB2E9D1EE
:1034B00002B0BDE8F08100BF8C070020F8B50446DB
:1034C00000F094F8B4F80A5100B995B365B9254BEA
:1034D0001B787BBB012384F81031B4F80E31A4F8BB
:1034E0000A310023A4F80C31B4F80A310BB31E489A
:1034F000FFF7FAF80546082D1BD9B4F80C3194F8FB
:1035000010115A1C92B2A4F80C2141B37721204625
:10351000FFF7B0FFB4F80C21B4F80A31083D9A4225
:10352000ADB2E8D30023A4F80C31A4F80A3184F832
:103530001031F8BD204600F098F8074684F8105185
:10354000EBB2BB42B4F80A61CBD2731CA4F80A31C7
:10355000204600F08AF8264430740135F0E7234411
:10356000197CD4E7FB0C00208C07002001EB410103
:10357000890001F51671A0F80E11704708B500F02A
:1035800018F8D823B0FBF3F080B208BD002310B5C3
:10359000038104464381018043600373084603F0BE
:1035A0008BFE6060204610BD0023038143810373BE
:1035B00070474189038902889BB28B4205D1037B06
:1035C000002B0CBF104600207047438901899942A7
:1035D00087BF038940894389008986BF8018C01A44
:1035E000181A80B2904288BF002070474289038930
:1035F0009BB2934205D1027B02F0FF0382B10088A7
:103600007047438902899A429DBF42890389008895
:1036100003898BBF4089C018181A801A80B270477E
:1036200018467047037B10B503F0FF02B3B9038956
:1036300044689BB2E1540389018801339BB2038142
:103640000389994298BF0281028943899BB29342C0
:103650004FF0010300D10373184600E0002010BDB5
:10366000438942689BB2D05C704710B5428941687B
:1036700092B20346885C002119735A891C88013272
:1036800092B25A815A89C0B2944298BF598110BDF2
:1036900030B5002400250023C0E90245037000F185
:1036A000100200F1430102F8013B8A42FBD183641E
:1036B00000F11103436430BD30B500230024002520
:1036C0000370C0E90245836430BD00002DE918484D
:1036D000D0E9022312EB020B044643EB030C41BB7F
:1036E000C0E902BCD4E90201002301EA030C002373
:1036F000144A8CEA030100EA020B134A8BEA020027
:1037000000F006F9D8B911491148FDF761FCCD2246
:10371000636C01211A70F522636C0E485A70902276
:10372000636C9A700C4B2170A364BDE81848FFF7D6
:1037300007BA63464BF00102C0E90223D2E7BDE8B5
:10374000188800BFFFFF0F0059DF0C00569D0008CE
:10375000941000208C07002014000600312201483C
:10376000FDF746BB941000202DE9F0480446D0E94F
:10377000022312EB020B43EB030CC0E902BCB0F8CE
:103780004800384FC51000F00700666C385C00290F
:1037900064D063464BF00102C4E90223735D184311
:1037A0007055B4F8483001339BB2B3F5C07FA4F82C
:1037B000483002D92046FFF77FFFB4F84830123B6B
:1037C000042B1BD8D4E90201002301EA03060023DD
:1037D000254A86EA030100EA0205244A85EA020036
:1037E00000F096F8032809D8B4F848202049143A84
:1037F00012B22048FDF701FF1F4BA364B4F8483014
:10380000B3F5C07F28D1B4F84A50013DADB2A4F859
:103810004A507DB919491748FDF7DAFB294618487F
:10382000FFF78EF91348FDF715FB2046BDE8F04879
:10383000FFF742BF26466B1F5D425D4106F8105FF1
:1038400031462046FFF78AFF33220021304604F03C
:1038500051FE0023A4F84830BDE8F088735D23EAE8
:1038600000009DE70C9D0008FFFF0F0059DF0C00D2
:10387000149D00089410002014000600349D0008D8
:103880008C07002003780BB9FFF720BFFFF76CBF50
:1038900010B50346144609B9002010BD12F1090FF6
:1038A00008DA0A22013994FBF2F2FFF7F1FF03462E
:1038B0000028F1D00A2194FBF1F2184601FB1242D4
:1038C000C2F1300200F8012BE7E70000014B185C61
:1038D000704700BF719D0008034AC3B2000AD35C61
:1038E000105C1844C0B27047719D0008074AC3B20B
:1038F000C0F30721515CD35C0B44C0F30741515C1A
:10390000000E105C0B441844C0B27047719D000853
:103910000F4A10B5C3B2C0F30724145DD35C23442F
:10392000C0F30744145D000E105C23441844CBB26E
:10393000D35C1844C1F30723D35C1844C1F3074395
:10394000D35C090E1844535C1844C0B210BD00BFCC
:10395000719D000810B5044611B90024204610BD21
:1039600052420139FFF794FF0028F6D0002303707C
:10397000F4E7000030B5002400250023C0E902452B
:10398000037000F1100200F1EB0102F8013B8A42E2
:10399000FBD1064AA0F8F43080F8F63000F11103AC
:1039A000C0F8F020C0F8EC3030BD00BF00000F2799
:1039B000002330B500240025054A0370C0E9024504
:1039C000C0F8F020A0F8F43080F8F63030BD00BF29
:1039D00000000F272DE91848D0E9022312EB020B53
:1039E000044643EB030C81BBC0E902BCD4E90201ED
:1039F0004FF6FF734FF0FF3201EA030C45F27553A7
:103A000000EA020B154A8CEA03018BEA0200FFF779
:103A10007FFF02281FD812481249FDF7D9FA002368
:103A20001148195CD4F8EC20D1540133062BF8D19D
:103A300004230121A4F8F43030232170A4F8F030DD
:103A40000A48BDE81848FFF77BB863464BF001020F
:103A5000C0E90223CAE7BDE8188800BFFF77FFF579
:103A600094100020C59E0008799E00088C07002055
:103A7000D9220148FDF76CB99410002010B590F8D8
:103A8000F63004460F2B28D8DFE803F0082727116B
:103A900027272717272727271E27272010491148C0
:103AA000FDF796FA4FF44673A4F8F23010BD0E49B4
:103AB0000C48FDF78DFA9023F6E70C490948FDF70D
:103AC00087FA4FF4B473EFE70949F7E70949054866
:103AD000FDF77EFA4FF4D873E6E74FF4D863E3E7D7
:103AE000DF9E000894100020F89E0008119F000837
:103AF0002B9F0008449F00082DE9F0480446D0E9B8
:103B0000022312EB020B43EB030CC0E902BCB0F83A
:103B1000F0002C4FC51000F00700D4F8EC60385CC2
:103B200000294BD063464BF00102C4E90223735DC8
:103B300018437055B4F8F03001339BB2B3F5D86F29
:103B4000A4F8F03002D92046FFF732FFB4F8F03085
:103B5000402B1CD148F28902D4F8EC30DB7903F019
:103B60000F0384F8F63022FA03F3DB0706D40423AC
:103B7000A4F8F43002232370BDE8F0882046FFF754
:103B80007DFF94F8F62010491048FDF736FDB4F893
:103B9000F030B4F8F2209A42EED101232146D20847
:103BA0001A4401F8103FD2B20848FDF79FF80423E9
:103BB000A4F8F4300023A4F8F030DBE7735D23EAC7
:103BC0000000B6E7719E00087F9E00089410002058
:103BD0002DE9F0480446D0E9022312EB020B43EB37
:103BE000030CC0E902BCB0F8F0004A4FC51000F069
:103BF0000700D4F8EC60385C002900F0848063464C
:103C00004BF00102C4E90223735D18437055B4F808
:103C1000F03001339BB2B3F5D86FA4F8F03002D97D
:103C20002046FFF7C5FEB4F8F0302E3B042B1ED81B
:103C3000D4E902014FF6FF734FF0FF3201EA0306A9
:103C400045F2755300EA0205334A86EA030185EA24
:103C50000200FFF75DFE042809D830493048FDF71F
:103C6000B7F90423A4F8F4303023A4F8F030B4F802
:103C7000F030402B0FD1D4F8EC302046DB7903F044
:103C80000F0384F8F630FFF7F9FE94F8F620254983
:103C90002348FDF7B2FCB4F8F030B3F5D86F36D155
:103CA000B4F8F450013DADB2A4F8F450C5B91E49C2
:103CB0001B48FDF78DF929461C48FEF741FF1848BF
:103CC000FDF778F82046FFF773FE94F8F630032BE3
:103CD00001D00F2B1BD12046BDE8F048FFF768BE8E
:103CE0002646EB1E5D425D4106F8105F31462046D8
:103CF000FFF7BEFEDB220021304604F0FBFB002371
:103D0000A4F8F030E1E7735D23EA00007EE7BDE848
:103D1000F08800BF719E0008FF77FFF58B9E0008BA
:103D2000941000207F9E0008A49E00088C070020AD
:103D30000378012B03D0022B03D0FFF74BBEFFF714
:103D4000DBBEFFF745BF0C234343013B1846013858
:103D5000FDD8704708B5082003F0B6F938B104481B
:103D600001F07EF8BDE80840082003F0BBB908BDAB
:103D70008C0700202DE9F04F87B003A803F0B4F8BA
:103D800001211D2002F038FD01217D4803F0EEF8ED
:103D900042F21070FFF7D7FF04274FF4C053DFF84B
:103DA000EC8103A94046ADF80C308DF80F7003F09C
:103DB00048F8002002F09EFC01214FF4000002F0C0
:103DC00027FD4FF440700324102502F04FFF2023FD
:103DD0006C4E03A93046ADF80C308DF80E408DF8CE
:103DE0000F5003F02EF840234FF0800B03A930460C
:103DF000ADF80C308DF80E408DF80F5003F021F81F
:103E000003A930468DF80F708DF80E40ADF80CB058
:103E100003F017F84FF480734FF4804A03A930463B
:103E2000ADF80C3001938DF80E408DF80F5003F073
:103E300008F8554A4FF00809104603A900928DF87A
:103E40000E40ADF80CA08DF80F5002F0FAFF03A958
:103E500030468DF80F708DF80E40ADF80C5002F022
:103E6000F0FF8DF80F704FF4005703A930468DF81E
:103E70000E40ADF80C9002F0E4FF009A03A9104642
:103E8000ADF80C708DF80E408DF80F5002F0D9FF90
:103E90004FF4007203A93046ADF80C208DF80E40A7
:103EA0008DF80F5002F0CDFF4FF4805203A9304639
:103EB000ADF80C208DF80E408DF80F5002F0C1FFC8
:103EC00003A93046ADF80C708DF80E408DF80F50F8
:103ED00002F0B7FF0222012703A93046ADF80C20FB
:103EE0008DF80E408DF80F5002F0ABFF03A930465D
:103EF0008DF80E40ADF80C708DF80F5002F0A1FF58
:103F0000019B03A94046ADF80C308DF80E408DF8AA
:103F10000F5002F096FF03A940468DF80E40ADF811
:103F20000CB08DF80F5002F08CFF03A930468DF8CD
:103F30000E40ADF80CA08DF80F5002F082FF4FF448
:103F4000004303A93046ADF80C308DF80E408DF8D3
:103F50000F5002F076FF2146384603F037F8002371
:103F60000DEB0500CDF810908DF814308DF815503C
:103F70008DF8167003F054F807B0BDE8F08F00BF5D
:103F800000023000000C0140001001400008014018
:103F900040F2091307B5ADF804300F238DF8063051
:103FA000012301A88DF8073002F06AFE03B05DF826
:103FB00004FB0000032307B58DF806301023ADF88D
:103FC000043041B101A905488DF8073002F039FFEE
:103FD00003B05DF804FB0423F4E700BF000C0140CC
:103FE0000A460248202102F09DBF00BF000C01409C
:103FF0000A460248402102F095BF00BF000C014074
:1040000008B58021034802F077FF431E584258410B
:1040100008BD00BF000C01400A4602484FF4807101
:1040200002F080BF000C01400A4602484FF4804174
:1040300002F078BF0010014008B51021034802F0DB
:104040005BFF431E5842584108BD00BF000C0140B1
:1040500008B50821034802F04FFF431E584258415B
:1040600008BD00BF000C01400A460248102102F0C2
:1040700059BF00BF000C01400A460248082102F067
:1040800051BF00BF000C01400A4602484FF40051E6
:1040900002F048BF001001400A4602484FF4007188
:1040A00002F040BF000C01400A4602484FF4805124
:1040B00002F038BF000C01400A4602484FF400519C
:1040C00002F030BF000C01400A460248022102F013
:1040D00029BF00BF000C01400A460248012102F03E
:1040E00021BF00BF000C01400A4602484FF4807116
:1040F00002F018BF00080140FFF7F6BF0A46024869
:10410000802102F00FBF00BF000801400A460248AC
:104110004FF4804102F006BF000C01400A460248FD
:104120004FF4004102F0FEBE000C014042F210705C
:10413000FFF709BE4FF49670FFF705BE0846FFF77C
:1041400002BE00BF00BF00BF704730B5002400258D
:104150000023C0E90245037000F1100200F18B0159
:1041600002F8013B8A42FBD1C0F8903000F1110304
:10417000C0F88C3030BD30B500230024002503701A
:10418000C0E90245C0F8903030BD000000000000DA
:104190002DE91848D0E9022312EB020B044643EB49
:1041A000030C31BBC0E902BCD4E902011BA3D3E973
:1041B000002301F0FF0C50408CEA0301FFF7A8FB3D
:1041C00002281CD810481149FCF702FF00231048B0
:1041D000195CD4F88C20D1540133052BF8D101217E
:1041E0000C4B2170C4F890300B48BDE81848FEF71E
:1041F000A7BC63464BF00102C0E90223D4E7BDE847
:10420000188800BFAFF3008094100020AC9F000816
:10421000679F0008280002008C0700204D63C971C9
:10422000D400000079220148FCF710BD9410002052
:104230002DE9F0480446D0E9022312EB020B43EBD0
:10424000030CC0E902BCB0F89000394FC51000F073
:104250000700D4F88C60385C002961D063464BF0CD
:104260000102C4E90223735D18437055B4F890301D
:1042700001339BB2B3F5707FA4F8903002D9204689
:10428000FFF779FFB4F89030263B042B18D8D4E917
:10429000020125A3D3E9002301F0FF06504086EA7E
:1042A0000301FFF735FB04280AD8B4F89020214910
:1042B000283A12B22048FDF7A0F9204BC4F89030FC
:1042C000B4F89030B3F5707F28D1B4F89250013D26
:1042D000ADB2A4F892507DB919491748FCF778FEA1
:1042E00029461848FEF72CFC1348FCF7E1FC204651
:1042F000BDE8F048FFF73FBF26466B1E5D425D41BB
:1043000006F8105F31462046FFF78CFF7B22002124
:10431000304604F0EFF80023A4F89030BDE8F088B0
:10432000735D23EA0000A0E74D63C971D40000006B
:104330005F9F00086C9F0008941000202800020076
:104340008B9F00088C07002003780BB9FFF720BF74
:10435000FFF76EBF0246222301210148FCF720BC73
:104360009410002000220023C0E90023002300F164
:10437000080200F1500102F8013B8A42FBD1064AD3
:1043800043678267A0F87C3080F87E3080F87F3009
:10439000A0F88030704700BF00000F27002342F2D2
:1043A0000F7280F87F30A0F87630A0F87830A0F84F
:1043B0007A20A0F87C3070472DE9D8483BA3D3E998
:1043C00000234FF0FF364FF6FF770446D0E9000197
:1043D00001EA070C00EA060B8BEA02008CEA0301F3
:1043E000FFF796FA032817D8402384F87C30B4F8F6
:1043F000743003F2A51292B2B2F5107FA4F87630B1
:1044000049D2A4F8782003F16C0292B2B2F5107F81
:1044100026D2A4F87A2027E0D4E9000101EA070CAB
:1044200000EA060B23A3D3E900238BEA02008CEAFF
:104430000301FFF76DFA0328D6D9D4E900011FA3C1
:10444000D3E9002301EA070C00EA060B8BEA02001D
:104450008CEA0301FFF75CFA03280AD82023C4E79B
:10446000A3F5EA73A4F87A3000220F4B1A60BDE876
:10447000D888D4E9000101EA070C00EA060B08A37A
:10448000D3E900238BEA02008CEA0301FFF740FA2C
:104490000328E3D9EBE7A3F19B02B2E7AFF3008077
:1044A0005F5DF5D5FF7D0000F40C002057D77FF746
:1044B000D7D50000F5F75F7F55D70000FD7DD55DAE
:1044C0007D7F00002DE9F0414FF0000C1E467A4F31
:1044D000F41AE4B2A24240F2EC8086F800C000EB8D
:1044E000D10401F0070594F808E07C5D4D1C0EEA4C
:1044F000040ECC43ADB2B5F5107F04F0070428BF1D
:10450000A1F23F214EFA04FE28BF8DB24FEACE1E23
:1045100086F800E000EBD5014FFA8EF405F0070EA7
:10452000097A17F80EE001EA0E016FEA050E0EF0A7
:10453000070E41FA0EF144EA8114691C1FFA81F852
:10454000B8F5107F24BFA5F23F251FFA85F864B2A5
:10455000347000EBD80108F0070591F808E0795DA8
:104560000EEA010E6FEA080101F007014EFA01FEA2
:1045700008F1010189B2B1F5107F28BFA8F23F21EF
:1045800044EA4E1428BF89B264B2347000EBD105FE
:1045900001F0070895F808E017F808500EEA050E34
:1045A000CD4305F007054EFA05FE44EA0E1401F16D
:1045B000010E1FFA8EFEBEF5107F24BFA1F23F212F
:1045C0001FFA81FE64B2347000EBDE010EF00708C2
:1045D0000D7A17F808100D406FEA0E0101F007017F
:1045E0000D410EF1010189B2B1F5107F28BFAEF285
:1045F0003F2144EAC50428BF89B264B2347000EB9D
:10460000D10501F0070E2D7A17F80EE005EA0E0528
:104610006FEA010E0EF0070E45FA0EF501F1010EDC
:104620001FFA8EFEBEF5107F28BFA1F23F2144EA9B
:10463000850428BF1FFA81FE64B2347000EBDE01EE
:104640000EF007080D7A17F808100D406FEA0E01FA
:1046500001F007010D410EF101011FFA81F8B8F5D3
:10466000107F28BFAEF23F2144EA450428BF1FFA5D
:1046700081F864B2347000EBD80108F0070591F8B6
:1046800008E0795D0EEA010E6FEA080101F007010A
:104690004EFA01FE08F1010189B244EA0E04B1F5B7
:1046A000107F06F8014BFFF413AFA8F23F2189B247
:1046B0000EE7BDE8F08100BFC69F000873B5044651
:1046C000B0F874009C4E04EBD00200F00705137A9A
:1046D000755D002951D02B431372D4E9002395183E
:1046E00043EB030600294BD1C4E9005694F87F3010
:1046F000002B4BD12046FFF75FFEB4F87420B4F8CE
:104700007A309A4272D194F87C3004F1510584F8E1
:10471000503021222B46B4F878102046FFF7D2FE05
:1047200094F87C30402B40F0B28001A800F0D0FA21
:104730000DF107030DF10602294601A800F0F8FA71
:1047400094F87E209DF806309A424CD1002394F8CC
:10475000502084F87D3084F880309DF807301A436B
:1047600084F850200A2B00F28E80DFE803F0726498
:104770007A8C8C8C2C53538C530023EA0503ABE7C3
:10478000334645F00102C4E90023AFE7B4F87610E0
:1047900001F23E239BB2B3F5107F01F1020292B207
:1047A00024BF8B1E9BB2B2F5107F24BFA1F23E2224
:1047B00092B2934204D283429FD882429DD399E71A
:1047C0008342FAD896E7B4F976205C495C48FCF756
:1047D00014FF04F15000FFF7BDFD022384F87F3081
:1047E000002384F88130002384F87C30B4F87430DE
:1047F00094F87F1001339BB2B3F5107F28BF0023DC
:104800000031A4F8743018BF01214E48FEF798F922
:1048100002B070BD94F87F30022BE4D1B4F9762059
:1048200049494748FCF7E9FE04F15000FFF792FDC3
:104830009DF80730D5E7B4F9762044494048FCF7A5
:10484000DCFE04F15000FFF785FD012384F87F3082
:10485000C9E794F87F30012BF7D1B4F976203C49B1
:10486000ECE794F87F30012BBDD1B4F976203949BB
:104870003348FCF7C2FE04F15000FFF76BFD204601
:10488000FFF78CFDAFE7B4F976203349F0E7202B32
:1048900012D1B4F9762031492948FCF7AEFE04F173
:1048A0005000FFF757FD012384F87F30002384F880
:1048B0007D3084F8803096E794F87F30002B92D0DA
:1048C00094F87D300133DBB20C2B84F87D3006D9AF
:1048D0001B480121FCF79AF92046FFF75FFD94F889
:1048E0007F30012B18D194F8803004F15002042B52
:1048F00083BF202384F850300023013397BFDBB2FD
:1049000084F8803084F8803084F8503001212223EC
:104910000B48FCF745F966E7022B7FF464AF94F887
:104920008130002B3FF45FAF204643F0400300F896
:10493000503FFFF70FFD56E7C69F0008CE9F0008C7
:10494000941000208C070020EE9F00080FA00008A4
:1049500030A0000854A0000879A0000892A0000828
:1049600080F87E10704700000A462223012101488A
:10497000FCF716B99410002010B540F2DC51044643
:10498000FEF704FE002304F1100204F5986102F81A
:10499000013B8A42FBD1F022C4F8C034A4F8C424FD
:1049A00084F8C634204610BD312A70B506460C4640
:1049B0000ED1FEF7FEFD2F280CD904F1300514F8B6
:1049C000011F3046FEF72EFEAC42F8D1002070BD2C
:1049D0000420FCE70520FAE72DE9F3410D46082401
:1049E00000274FF001080D4E2B064FF001024FF04B
:1049F00000030DF10701304604F1FF344CBF8DF880
:104A000007808DF807706D00FDF74AFE14F0FF0473
:104A1000EDB2E9D102B0BDE8F08100BF8C07002003
:104A2000F8B50446FEF7E2FDB4F8C03408B9002B2F
:104A300056D063B92B4A12788ABB012384F8C63456
:104A4000B4F8C434A4F8C0340023A4F8C234B4F8D1
:104A5000C034002B44D02448FDF746FE002705460D
:104A60000326082D3CD994F8C63453B37721204649
:104A7000FFF7B2FFB4F8C2340133A4F8C234B4F87B
:104A8000C224B4F8C034083D9A42ADB2E9D394F8D8
:104A9000C6340BB384F8C674C4F8C064E1E73025AB
:104AA00084F8C634B4F8C0642046731CA4F8C0343B
:104AB000FEF7DBFD013D264415F0FF053074F1D112
:104AC000C2E7B4F8C23420465A1CA4F8C2242344D6
:104AD000197CFFF781FFD2E7C4F8C03484F8C634EC
:104AE000F8BD00BFFB0C00208C07002001EB41014A
:104AF000890001F51671A0F8C414704708B5FEF7D7
:104B000058FD3023B0FBF3F0C0B208BD0023811C78
:104B10000A4610B50370437000F1240401F8013B0C
:104B2000A142FBD1074980F824308362134601F18A
:104B3000200251F8044B914243F8044BF9D10A8802
:104B40001A8010BDFDA0000830B50F4DC1EBC101AA
:104B50006B185A78047C42749A78695C8274DA78AB
:104B600024F00F04C2741A7901F00F0102755A790A
:104B70009B794275827D23F00F0302F00F022143DF
:104B800013430174837530BDB1A0000810B504460D
:104B90001C48FBF7A3FB1B48FBF704FC68B16378D8
:104BA000022B0BD0032B23D0012B28D12222164914
:104BB0001448FBF73CFB0223637010BD94F82410EB
:104BC0002046FFF7C1FF2222A11C0E48FBF72FFB56
:104BD00094F82430052B07D1002384F8243023785F
:104BE000002BEAD10323E7E7013384F82430E4E71C
:104BF000222206490348FBF71AFB0023DCE70023C7
:104C00006370F2E750030020DBA000081FA100083A
:104C100007B51A4A1278622A06D0642A14D05C2A90
:104C20000BD1FFF7B3FF08E0017849B11448012127
:104C3000FBF73AFB1248FBF751FB03B05DF804FBAE
:104C40000F48FBF731FBF8E7826A0E4901328A42CE
:104C500001D88262F1E7002201A982620DF1060209
:104C60000948FDF785FFBDF80420BDF9063052085C
:104C700006490748FCF754FFDFE700BFEC0C0020B3
:104C800050030020979801008C07002041A10008E4
:104C900094100020012A08B514D10B78012B0CBF09
:104CA0000122002202700BD1427822B9064A127802
:104CB0005C2A00D1437001220221044800F0C0F9AF
:104CC000002000E0042008BDEC0C00208C07002030
:104CD00070470000B1F5006F10B50ED34FF480237C
:104CE00040F67540064C214207D0194201D15B08BD
:104CF000FBE7DA0A42435140F5E7084610BD00BF22
:104D000000F8FFFF10B54C780B78E40004EBC324E7
:104D10008B7804EB53142146FFF7DCFF034B53F869
:104D200020006040C0F3C72010BD00BF54A10008A0
:104D300073B51E464B7B0C7B15469A0942EA8402EA
:104D40000C7DC97C9B00890023F03F0301F03C01EE
:104D5000194341EA9411A4008DF8051024F00F04C2
:104D600001A98DF804208DF80640FFF7CBFF030959
:104D700000F00F002B70307002B070BD02F00F0217
:104D800042EA0111C8B2197B124A21F03F0141EAFF
:104D9000900130B532F810401973597BE5B2AA087A
:104DA00001F00F0141EA801102F030000143597314
:104DB000D97C02F00F0221F00F0111431A7DA40AE1
:104DC00002F0030242EA851204F03C042243D97443
:104DD0001A7530BD54C1000870B51F24104E114D16
:104DE00031682846E14011F0010118BF0121FFF7A9
:104DF000FFF80C48FFF7A5F901210A48FFF7F0F882
:104E00000848FFF79EF900210648FFF7E9F814F17A
:104E1000FF34E5D20021BDE870400248FFF7E8B852
:104E2000641300208C07002010B5074C0121204698
:104E3000FFF7F2F82046FFF784F92046BDE810405E
:104E40000021FFF7E9B800BF8C07002010B5044629
:104E5000FFF7C2FF1CB1BDE81040FFF7E5BF10BD72
:104E600000232DE9F3418DF80730037A0446002B27
:104E700076D0FFF7EDF84A4B05461A6890426FD09E
:104E8000484E18603378002B72D070BB464F474AAB
:104E90000DF1070104F1200000F088FE3A7882F05D
:104EA00001023A709DF80720002A5CD00121DFF84A
:104EB00008812046FFF7D8F898F80030ABB100BF62
:104EC00000BF00BF01212046FFF7A6F800BF00BFCA
:104ED00000BF00212046FFF79FF800212046FFF782
:104EE00087F8002388F800303B70DFF8D08098F80E
:104EF0000030EBB12C4F3B78D3B93378C3B1BDB997
:104F000020461A21FFF71AF901212046FFF784F8FD
:104F100000BF00BF00BF29462046FFF77DF82946A5
:104F20002046FFF765F8012388F8005035703B7084
:104F3000236D1F4A01332365136801331360B4F8EE
:104F40005430226C01339BB2A4F8543044F61F63F2
:104F50009A4284BF00232364236C0BB10133236482
:104F600002B0BDE8F0812946A1E78DF807000DE009
:104F70000028BAD00F4B1B78002BB6D12046FFF784
:104F80005BF80028F1D001238DF80730074B9DF81E
:104F900007101A7804F10C0000F0C2FDA5E700BF6D
:104FA0000C000020FB0C002010000020ED0C002065
:104FB000F40C0020F00C00208B1300208A1300203A
:104FC00010B504460121FFF7A1F8094B1A68094BF7
:104FD0001A60FFF701FF01212046FEF7EBFF0122D7
:104FE000054B1A702046FFF733F80028FAD110BDA0
:104FF00070130020641300208B13002038B50C467A
:1050000005460021FFF782F8094B20461A68094B34
:105010001A60FFF71BFF00212846FEF7CBFF34B9CB
:105020000122054B1A701A780AB100BFFBE738BDA0
:105030006C130020641300208A130020000000007D
:105040002DE9F04F612985B004460D46DFF8BC8399
:10505000CB4F04D0062900F00E82CA4B19706AB1FA
:1050600000212046FEF7E0FF2046FFF763F82046C8
:105070000121FEF7D9FF2046FFF75CF8D8F800A021
:10508000C14BC24A53449342DFF88493C04B00F2B1
:105090008780C04AC9F80020012238681A601E685B
:1050A000A0F5C330A03802F03DFB012EBA4B40F012
:1050B000898002221A60AEA3D3E9002302F0D6FC55
:1050C00002F064FE029002F0A7F903F083F95FFAA0
:1050D00080FB84F800B0584602F062FF029B014654
:1050E000184602F0A7FE4FF08E4102F0ADFF02F02D
:1050F0003BFB0022A94B02F0D9F902F009F902F0BA
:1051000025FE80B260800001A54B40EACB4040F014
:1051100090401860504602F005FB012E58D194A330
:10512000D3E9002302F0A2FC02F030FE834602F035
:1051300073F903F04FF95FFA80FA84F804A050463F
:1051400002F02EFF0146584602F074FE4FF08E41E9
:1051500002F07AFF02F008FB904B002202F0A6F961
:1051600002F0D6F802F0F2FD80B2E080000140EAE1
:10517000CA408C4B40F08040042D186000F05281F2
:105180002AD8022D00F0D18000F2D280012D00F04B
:10519000BE804FF0000AD3465346524656463FE083
:1051A000814A824952448A427FF673AF804A8149DC
:1051B00052448A4201D9804A6CE7804AC9F80020EB
:1051C00002226AE701221A606BA3D3E9002375E784
:1051D00069A3D3E90023A5E7062D14D0C0F02F81E1
:1051E000072D00F03A81612DD3D1754B1B78B3FBAD
:1051F000F6F640F29D3A734BDFF818B243EAC64622
:10520000714B724A0CE0724B4FF00D0A1B88DFF8AD
:1052100008B2B3FBF6F66F4AF6046F4B46F0005641
:10522000D9F80010DFF8F491CDE90223C9F8001095
:10523000FFF7D2FDFFF7F8FD029AC9F80020FFF74B
:10524000CBFDFFF7F1FD039BC9F80030FFF7C4FD6C
:10525000FFF7EAFD614BC9F80030FFF7BDFDFFF72E
:10526000E3FD42F2F543C9F80030FFF7B5FDFFF763
:10527000DBFD2046FEF75AFF01212046FFF7BEFE68
:10528000574B1A7841F6820343EA42331E43C9F86A
:105290000060FFF7A1FDFFF7C7FD0E23C9F800303E
:1052A000FFF79AFDFFF7C0FD4E4BC9F80030FFF73E
:1052B00093FDFFF7B9FDC9F800B0FFF78DFDFFF7CB
:1052C000B3FD3B23C9F80030FFF786FDFFF7ACFDC7
:1052D0004FF48673C9F80030FFF77EFDFFF7A4FD99
:1052E000C9F800A0FFF778FDFFF79EFD3E4BC9F817
:1052F0000030FFF771FDFFF797FD062D04D1009BED
:10530000C8F80030019B3B6005B0BDE8F08F374B1B
:105310004FF00D0A1B88DFF808B1B3FBF6F6F60470
:1053200046F01006324B334A7AE7334B1B885EE770
:1053300094F834303149002B08BF4FF40121234B3E
:105340002F4A18BF1A462F4B08BF4FF4966A43EAFC
:1053500001032D4918BF4FF4187A09884AF00D0A45
:10536000B1FBF6F61749DFF8ACB041EAC64657E79D
:105370000000000000203C410000000000204C41E3
:1053800054130020F90C002000BC6AF7FF083D0010
:105390007413002041501F02781300200000E03FEA
:1053A0006C130020701300204053F2F27F8D5B00DD
:1053B0008019D0CDFFF26F06415057004150530085
:1053C000040000207000002034270685D3804C2A7A
:1053D0008613002093004F2A845A1680160E070564
:1053E00060130020E93102000F000E007E13002040
:1053F000942AA80093414C2A7C1300200024060024
:1054000093C04C2A34034081881300205813002095
:10541000681300202A479E043A479614641300201C
:105420003A47960C194B40F2FD2A1B88DFF884B0EE
:10543000B3FBF6F6164B43EAC646164BE1E6164BAF
:1054400040F2AD1A1B88DFF86CB0B3FBF6F6104BD8
:10545000124A43EAC646124BE2E6124B40F2BD3A0C
:105460001B88DFF850B0B3FBF6F6094B0E4A43EA4F
:10547000C6460E4BD4E6D8F8003000933B68019343
:105480000B4B1B68C8F800303B60E8E58413002034
:1054900070000020342B66008213002013C14C2AB8
:1054A000349F74008013002093C04C2A343B7980D1
:1054B0005C1300202A479E04014B8908197070472D
:1054C000601300202B2041431648C90910B5018004
:1054D00017214A439DF818401349D2090A80134AFC
:1054E000F4B1DB08138016239DF808205343104ABB
:1054F000DB0913800D239DF80C2053430D4ADB0973
:1055000013801C239DF8102053430B4ADB091380A2
:10551000A0239DF814205343084ADB09138010BDD3
:105520009B08DFE77E1300207C13002088130020F7
:105530008413002082130020801300208613002093
:10554000F8B5514E514B3168514A0B4493420446D1
:10555000504B514D64D8514A1A6001222A602A6882
:105560001B68012A0CBF022101214D4A4D4F1160D9
:105570003B60FFF731FCFFF757FC4B4B39461B787C
:10558000022B5DD1494B2A681B88B3FBF2F2484BD2
:1055900043EAC243474A107841F6820242EA403267
:1055A00013430B60FFF718FCFFF73EFC2B683068D5
:1055B000012B53D102F0B6F82FA3D3E9002302F058
:1055C00055FA02F0E3FB064601F026FF02F002FF67
:1055D000C5B22571284602F0E3FC0146304602F0D0
:1055E00029FC4FF08E4102F02FFD02F0BDF8324B46
:1055F000002201F05BFF01F08BFE02F0A7FB80B2FE
:10560000E08000012D4B40EAC54040F0804018602A
:105610002B4B1B7843B32046BDE8F840FFF7D0BCC6
:10562000284A29480A44824295D9284A0A442849E6
:105630008A4201D9274A8FE7274A1A6002228DE75A
:10564000062B03BF254B2A681B884FF0005302BF6F
:10565000B3FBF2F3DB0443F000539BE702F062F884
:1056600007A3D3E90023AAE72046BDE8F8400121BB
:10567000FFF7C4BCAFF300800000000000203C41F5
:105680000000000000204C415813002000BC6AF7C5
:10569000FF083D00681300207413002041501F02D2
:1056A0007813002064130020F80C00207C130020E5
:1056B00070000020601300200000E03F7013002005
:1056C000FB0C00204053F2F27F8D5B008019D0CD9F
:1056D000FFF26F06415057004150530086130020DF
:1056E00038B50278408800EBC23002F059FC02F075
:1056F0003BF800224FF07C5302F08EF8104B04462A
:1057000018680D4602F00EF802460B460AA1D1E9D0
:10571000000102F0ABF902F039FB02F025F8024675
:105720000B462046294602F077F802F00FFB00F501
:10573000C330A03038BD00BF0000000000204C4145
:10574000781300200000000038B50279C08800EB13
:10575000C23002F025FC02F007F800224FF07C5323
:1057600002F05AF80E4B044618680D4601F0DAFFB5
:1057700002460B4608A1D1E9000102F077F902F0D8
:1057800005FB01F0F1FF02460B462046294602F0D8
:1057900043F802F0DBFA38BD0000000000204C4165
:1057A000781300200000000038B50F4B188801F076
:1057B000C9FF0BA3D3E9002302F02EF80B4B0446DC
:1057C00018680D46000401F0ADFF02460B46204666
:1057D000294602F04BF902F0B9FA80B238BD00BF99
:1057E0000000000000204C417E13002078130020B0
:1057F00038B50F4B188801F0A5FF0BA3D3E90023A0
:1058000002F00AF80B4B044618680D46000401F03C
:1058100089FF02460B462046294602F027F902F08E
:1058200095FA80B238BD00BF0000000000204C4156
:105830007C1300207813002038B50F4B188801F036
:1058400081FF0BA3D3E9002301F0E6FF0B4B0446D5
:1058500018680D46000401F065FF02460B4620461D
:10586000294602F003F902F071FA80B238BD00BF98
:105870000000000000204C41881300207813002015
:1058800038B50F4B188801F05DFF0BA3D3E9002357
:1058900001F0C2FF0B4B044618680D46000401F0EE
:1058A00041FF02460B462046294602F0DFF802F08F
:1058B0004DFA80B238BD00BF0000000000204C410E
:1058C000841300207813002038B50F4B188801F09E
:1058D00039FF0BA3D3E9002301F09EFF0B4B0446D5
:1058E00018680D46000401F01DFF02460B462046D5
:1058F000294602F0BBF802F029FA80B238BD00BF99
:105900000000000000204C4182130020781300208A
:1059100038B50F4B188801F015FF0BA3D3E900230E
:1059200001F07AFF0B4B044618680D46000401F0A5
:10593000F9FE02460B462046294602F097F802F08F
:1059400005FA80B238BD00BF0000000000204C41C5
:10595000801300207813002038B50F4B188801F011
:10596000F1FE0BA3D3E9002301F056FF0B4B0446D5
:1059700018680D46000401F0D5FE02460B4620468D
:10598000294602F073F802F0E1F980B238BD00BF99
:105990000000000000204C418613002078130020F6
:1059A00038B505462A4C2B492046FBF711FB284603
:1059B000FFF7CAFE284902462046FBF7EFFD2846BE
:1059C000FFF78EFE254902462046FBF7E7FD244BF4
:1059D00024491A782046FBF710FE2846FFF7E4FE1C
:1059E000214902B22046FBF708FE2846FFF700FFD8
:1059F0001E4902B22046FBF700FE2846FFF71CFFB7
:105A00001B4902B22046FBF7F8FD2846FFF738FF96
:105A1000184902B22046FBF7F0FD2846FFF754FF75
:105A2000154902B22046FBF7E8FD2846FFF770FF54
:105A3000124902B22046FBF7E0FD2846FFF78CFF33
:105A40000F4902B22046BDE83840FBF7D6BD00BF83
:105A50009410002054C300086FC300087DC30008E1
:105A6000601300208BC3000896C30008A7C300087A
:105A7000BCC30008D1C30008E6C30008FCC300088B
:105A800011C4000838B50023CD0883810446C381C2
:105A90000180C0E9013303744374284601F00CFC13
:105AA0006060284601F008FCA060204638BDC1892E
:105AB000838902889BB28B4205D1037C002B0CBFEB
:105AC000104600207047C3898189994287BF838926
:105AD000C089C389808986BF8018C01A181A80B20D
